:100119000808FEFDFBF7EFDFBF7F011200021003A5
:0101290020B5
:0A00FA00E511249CFFE51034FFFE21
:10010400EF1FAC0670011E4C600A7D027CEFDCFE22
:04011400DDFC80ECA2
:0101180022C4
:10008F0075A0FFE4F5121200FA74082512F8E6F5D0
:10009F00A01200FA749C2511F51174FF3510F5109C
:1000AF000512E512C3940840DD751207E512C394DB
:1000BF00004037E5112464FFE43510FE120104748B
:1000CF00082512F8E6F5A0E5112464FFE43510FECB
:1000DF0012010474642511F511E43510F510151291
:0B00EF00E511151170C6151080C2222B
:05012B0012008F80FBB3
:03000000020003F8
:0C000300787FE4F6D8FD75811202004AF7
:10000F0002012BE493A3F8E493A34003F68001F2DB
:10001F0008DFF48029E493A3F85407240CC8C333F2
:10002F00C4540F4420C8834004F456800146F6DFC1
:10003F00E4800B0102040810204080900119E47E37
:10004F00019360BCA3FF543F30E509541FFEE493B6
:10005F00A360010ECF54C025E060A840B8E493A37D
:10006F00FAE493A3F8E493A3C8C582C8CAC583CAA8
:10007F00F0A3C8C582C8CAC583CADFE9DEE780BE60
:01012A0000D4
:00000001FF
