:100116000808FEFDFBF7EFDFBF7F011200021003A8
:0101260020B8
:0A00F700E511249CFFE51034FFFE24
:10010100EF1FAC0670011E4C600A7D027CEFDCFE25
:04011100DDFC80ECA5
:0101150022C7
:10008F00E4F5121200F774082512F8E6F5A0120035
:10009F00F7749C2511F51174FF3510F5100512E555
:1000AF0012C3940840DD751207E512C39400403760
:1000BF00E5112464FFE43510FE12010174082512C6
:1000CF00F8E6F5A0E5112464FFE43510FE120101F6
:1000DF0074642511F511E43510F5101512E511159D
:0800EF001170C6151080C22239
:0801280012008F75A0FF80F8A2
:03000000020003F8
:0C000300787FE4F6D8FD75811202004AF7
:10000F00020128E493A3F8E493A34003F68001F2DE
:10001F0008DFF48029E493A3F85407240CC8C333F2
:10002F00C4540F4420C8834004F456800146F6DFC1
:10003F00E4800B0102040810204080900116E47E3A
:10004F00019360BCA3FF543F30E509541FFEE493B6
:10005F00A360010ECF54C025E060A840B8E493A37D
:10006F00FAE493A3F8E493A3C8C582C8CAC583CAA8
:10007F00F0A3C8C582C8CAC583CADFE9DEE780BE60
:0101270000D7
:00000001FF
