:1002550048656C6C6F20576F726C6421002D002B04
:010265000098
:100097001202417B417D017F0112028B7BFF7A02B5
:1000A70079557D037F011201B87BFF7A0279627D62
:1000B700107F011201B87FF47E0112022C7BFF7AB8
:1000C7000279647D107F011201B87FF47E0112026C
:0300D7002C80D6A4
:06026600C2A58F80D2A7A3
:08026C007F027EEFDEFEDFFCE5
:010274002267
:0A028100C2A6120266C2A702026CB8
:1001DB00CFCDCFCECCCE1200427C007D0A12004296
:0401EB00ED2430FFD0
:0A01EF00D2A6120266C2A702026C3B
:10021600AE07BE0104ED148006BE0209ED243F447C
:0602260080FF120281229C
:100241007F381202817F0C1202817F061202817FA8
:040251000102028123
:0A028B00AC03120216AF040201EFEB
:0601B8008B228A2389243A
:1001BE00120216E4FDAB22AA23A9248D82758300B8
:0C01CE00120003FF60061201EF0D80E933
:0101DA002202
:0C0185007F0AEA24FFFDE434FFFC7E004A
:080191008E1E8F1F8C208D21B2
:100199007F017E00E4FBEBC39521E5206480F874C0
:0E01A9008098500AAC1EAD1F1200300B80E88B
:0101B7002225
:0401F9008A118B12CA
:1001FD00120216AA13EAD39400400D120185AC1118
:08020D00AD121201DB1A80EDB5
:0102150022C6
:1000DA00120216C3EA64809480400B7F2B1201EF50
:1000EA008A0D8B0E800E7F2D1201EFC3E49BF50E55
:1000FA00E49AF50DAA0CEAD39400400D120185ACDE
:09010A000DAD0E1201DB1A80EDAF
:0101130022C9
:040114008A168B17A5
:10011800120216AA18EAD3940040297F1012018708
:10012800AC16AD17CFCDCFCECCCE120042EF540FC8
:10013800FEC3940AEE5004243080022437FF1201D3
:04014800EF1A80D159
:01014C002290
:04014D008A1B8B1C62
:10015100120216AA1DEAD394004028EA24FFFDE406
:1001610034FFFC7F027E00120191AC1BAD1CCFCD90
:10017100CFCECCCE120042EF54012430FF1201EF5A
:030181001A80D20F
:010184002258
:10022C00EF1FAC0670011E4C600A7D027CEFDCFEF9
:04023C00DDFC80EC79
:01024000229B
:0300000002027584
:0C027500787FE4F6D8FD75812402009724
:10000300BB010CE58229F582E5833AF583E02250B2
:1000130006E92582F8E622BBFE06E92582F8E222FC
:0D002300E58229F582E5833AF583E4932216
:10003000EF8DF0A4A8F0CF8CF0A428CE8DF0A42EE4
:02004000FE229E
:10004200BC000BBE0029EF8DF084FFADF022E4CCA2
:10005200F875F008EF2FFFEE33FEEC33FCEE9DEC6B
:10006200984005FCEE9DFE0FD5F0E9E4CEFD22EDB1
:10007200F8F5F0EE8420D21CFEADF075F008EF2FFB
:10008200FFED33FD4007985006D5F0F222C398FDEC
:050092000FD5F0EA2289
:00000001FF
