:0A052F004D696E692043616C6300A2
:1004B700100900000000000000000000000000001C
:0804C700000001080001190109
:1002AC00751AFF1204FB7BFF7A05792F7D017F0104
:1002BC00120459751AFF12032A8F1AE51AF460F307
:1002CC00AF08050874092FF8A61AAF1A12050FEF1C
:1002DC006013AD190519E51AFB7A00751F017F0231
:1002EC0012049A8035E51A24F8601424FD60182451
:1002FC00FC601C240B7023AD1905197B2B8016ADEB
:10030C001905197B2D800EAD1905197B2A8006ADB8
:0E031C001905197B2F7F0212054305088095F5
:1004E600EF1FAC0670011E4C600A7D027CEFDCFE3D
:0404F600DDFC80ECBD
:0104FA0022DF
:06052000C2A58F80D2A7E6
:080526007F027EEFDEFEDFFC28
:01052E0022AA
:0A053900C2A6120520C2A702052683
:10047C00CFCDCFCECCCE1201CB7C007D0A1201CBDE
:04048C00ED2430FF2C
:0A049000D2A6120520C2A70205261D
:1004D000AE07BE0104ED148006BE0209ED243F44C0
:0604E00080FF1205392225
:1004FB007F381205397F0C1205397F061205397FBB
:04050B0001020539AB
:0A054300AC031204D0AF04020490D0
:060459008B1B8A1C891DAB
:10045F001204D0E4FDAB1BAA1CA91D8D827583006D
:0C046F0012018CFF60061204900D80E961
:01047B00225E
:0C0426007F0AEA24FFFDE434FFFC7E00A6
:080432008E208F218C228D2306
:10043A007F017E00E4FBEBC39523E5226480F87418
:0E044A008098500AAC20AD211201B90B80E859
:010458002281
:04049A008A1D8B1E0E
:10049E001204D0AA1FEAD39400400D120426AC1DFC
:0804AE00AD1E12047C1A80ED62
:0104B6002223
:10037B001204D0C3EA64809480400B7F2B1204904C
:10038B008A298B2A800E7F2D120490C3E49BF52AB9
:10039B00E49AF529AA28EAD39400400D120426AC5E
:0903AB0029AD2A12047C1A80ED30
:0103B4002226
:0403B5008A2D8B2ED4
:1003B9001204D0AA2FEAD3940040297F10120428EE
:1003C900AC2DAD2ECFCDCFCECCCE1201CBEF540F6D
:1003D900FEC3940AEE5004243080022437FF12042D
:0403E900901A80D115
:0103ED0022ED
:0403EE008A328B3391
:1003F2001204D0AA34EAD394004028EA24FFFDE490
:1004020034FFFC7F027E00120432AC32AD33CFCD1A
:10041200CFCECCCE1201CBEF54012430FF12049088
:030422001A80D26B
:0104250022B4
:10000300E4F5357590FFC2932097137F14FE120415
:10001300E63097FD7F147E001204E6E4F535209662
:10002300147F147E001204E63096FD7F147E0012C6
:1000330004E67535042095147F147E001204E6301F
:1000430095FD7F147E001204E67535082094147F15
:10005300147E001204E63094FD7F147E001204E641
:1000630075350C7590FFC2922097147F147E001291
:1000730004E63097FD7F147E001204E675350120F7
:1000830096147F147E001204E63096FD7F147E00E2
:100093001204E67535052095147F147E001204E6DC
:1000A3003095FD7F147E001204E675350920941403
:1000B3007F147E001204E63094FD7F147E00120448
:1000C300E675350D7590FFC2912097147F147E005D
:1000D3001204E63097FD7F147E001204E6753502A4
:1000E3002096147F147E001204E63096FD7F147E62
:1000F300001204E67535062095147F147E00120461
:10010300E63095FD7F147E001204E675350A2094CF
:10011300147F147E001204E63094FD7F147E0012D7
:1001230004E675350E7590FFC2902097147F147EF8
:10013300001204E63097FD7F147E001204E6753545
:10014300032096147F147E001204E63096FD7F147C
:100153007E001204E67535072095147F147E001285
:1001630004E63095FD7F147E001204E675350B20FE
:1001730094147F147E001204E63094FD7F147E00F5
:080183001204E675350FAF35DB
:01018B002251
:10032A00751BFF75900FAF90EF24F5601024FE60E7
:10033A001114601324077012E4F51B800D751B015C
:10034A008008751B028003751B037590F0AF90EF50
:10035A002450600C24E0600C24F0600C2470800EA1
:10036A007404800674088002740C251BF51BAF1BED
:01037A002260
:10050F00EF54036006EFC3940D40037F00227F0179
:01051F0022B9
:03000000020220D9
:0C022000787FE4F6D8FD75813502026796
:10018C00BB010CE58229F582E5833AF583E0225028
:10019C0006E92582F8E622BBFE06E92582F8E22272
:0D01AC00E58229F582E5833AF583E493228C
:1001B900EF8DF0A4A8F0CF8CF0A428CE8DF0A42E5A
:0201C900FE2214
:1001CB00BC000BBE0029EF8DF084FFADF022E4CC18
:1001DB00F875F008EF2FFFEE33FEEC33FCEE9DECE1
:1001EB00984005FCEE9DFE0FD5F0E9E4CEFD22ED27
:1001FB00F8F5F0EE8420D21CFEADF075F008EF2F71
:10020B00FFED33FD4007985006D5F0F222C398FD61
:05021B000FD5F0EA22FE
:10022C000202ACE493A3F8E493A34003F68001F23A
:10023C0008DFF48029E493A3F85407240CC8C333D3
:10024C00C4540F4420C8834004F456800146F6DFA2
:10025C00E4800B01020408102040809004B7E47E77
:10026C00019360BCA3FF543F30E509541FFEE49397
:10027C00A360010ECF54C025E060A840B8E493A35E
:10028C00FAE493A3F8E493A3C8C582C8CAC583CA89
:10029C00F0A3C8C582C8CAC583CADFE9DEE780BE41
:0104CF00002C
:00000001FF
