:1000E0005389F0438901758A18758CFCC28DD28CB6
:0700F000D2A9D2AFD2B92260
:1000C0001200E075A0FE12000E8F0BE50B60F7B476
:1000D00001F4050AE50AC3940240EBE4F50A80E660
:03000B0002006F81
:10006F00C0E0C0D075D000C000C007758A18758C6D
:10007F00FC0509E50970020508C394E8E508940337
:10008F004026750800750900E50A600FAFA07801DA
:10009F00EF08800123D8FDF5A0800DAFA07801EF08
:1000AF0008800103D8FDF5A0D007D000D0D0D0E054
:0100BF00320E
:1000F700EF1FAC0670011E4C600A7D027CEFDCFE30
:04010700DDFC80ECAF
:01010B0022D1
:10000E00E4F50C20B1137F14FE1200F730B1FD7F22
:10001E00147E001200F7750C0120B0147F147E00C0
:10002E001200F730B0FD7F147E001200F7750C023F
:10003E0020B2147F147E001200F730B2FD7F147EC2
:10004E00001200F7750C0320B3147F147E0012000B
:10005E00F730B3FD7F147E001200F7750C04AF0C61
:01006E00226F
:0300000002010CEE
:0C010C00787FE4F6D8FD75810C0200C07D
:00000001FF
