:10034D0053746172743A006479730020203A20204E
:04035D003A20200022
:0903840001141701153B011137AA
:10012E001203201203617BFF7A03794D7D017F015B
:10013E001202C27BFF7A0379547D0E7F011202C236
:10014E007BFF7A0379587D097F021202C2750C0675
:10015E00AB13AA127D087F01120303E514FB7A008C
:10016E00750C027D097F02120303E515FB7A0075FB
:10017E000C027D0C7F02120303E511FB7A00750C55
:0A018E00027D0F7F0212030380C3FD
:03000B0002019857
:10019800C0E0C0D0758A18758CFC0517E517700289
:1001A8000516C394E8E5169403402C7516007517D8
:1001B800000511E511B43C1F7511000515E515B4CE
:1001C8003C157515000514E514B4180B75140005D5
:0C01D80013E51370020512D0D0D0E03205
:100320005389F0438901758A18758CFCC28DD28C73
:07033000D2A9D2AFD2B9221D
:06037500C2A58F80D2A793
:08037B007F027EEFDEFEDFFCD5
:010383002257
:0A038E00C2A6120375C2A702037B8A
:1002E500CFCDCFCECCCE12004D7C007D0A12004D75
:0402F500ED2430FFC5
:0A02F900D2A6120375C2A702037B10
:10033700AE07BE0104ED148006BE0209ED243F445A
:0603470080FF12038E226C
:100361007F3812038E7F0C12038E7F0612038E7F5D
:040371000102038EF4
:0A039800AC03120337AF040202F9B0
:0602C2008B088A09890A7D
:1002C800120337E4FDAB08AA09A90A8D82758300D9
:0C02D80012000EFF60061202F90D80E912
:0102E40022F7
:0C028F007F0AEA24FFFDE434FFFC7E003F
:08029B008E0D8F0E8C0F8D10EB
:1002A3007F017E00E4FBEBC39510E50F6480F874D7
:0E02B3008098500AAC0DAD0E12003B0B80E897
:0102C100221A
:040303008A0A8B0BCC
:10030700120337AA0CEAD39400400D12028FAC0AED
:08031700AD0B1202E51A80EDA6
:01031F0022BB
:1001E400120337C3EA64809480400B7F2B1202F918
:1001F4008A1D8B1E800E7F2D1202F9C3E49BF51E0F
:10020400E49AF51DAA1CEAD39400400D12028FACA7
:090214001DAD1E1202E51A80ED79
:01021D0022BE
:04021E008A218B2284
:10022200120337AA23EAD3940040297F10120291C5
:10023200AC21AD22CFCDCFCECCCE12004DEF540F9C
:10024200FEC3940AEE5004243080022437FF1202C7
:04025200F91A80D144
:010256002285
:040257008A268B2741
:10025B00120337AA28EAD394004028EA24FFFDE4CE
:10026B0034FFFC7F027E0012029BAC26AD27CFCD64
:10027B00CFCECCCE12004DEF54012430FF1202F939
:03028B001A80D204
:01028E00224D
:030000000200A259
:0C00A200787FE4F6D8FD75812A0200E9A1
:10000E00BB010CE58229F582E5833AF583E02250A7
:10001E0006E92582F8E622BBFE06E92582F8E222F1
:0D002E00E58229F582E5833AF583E493220B
:10003B00EF8DF0A4A8F0CF8CF0A428CE8DF0A42ED9
:02004B00FE2293
:10004D00BC000BBE0029EF8DF084FFADF022E4CC97
:10005D00F875F008EF2FFFEE33FEEC33FCEE9DEC60
:10006D00984005FCEE9DFE0FD5F0E9E4CEFD22EDA6
:10007D00F8F5F0EE8420D21CFEADF075F008EF2FF0
:10008D00FFED33FD4007985006D5F0F222C398FDE1
:05009D000FD5F0EA227E
:1000AE0002012EE493A3F8E493A34003F68001F239
:1000BE0008DFF48029E493A3F85407240CC8C33353
:1000CE00C4540F4420C8834004F456800146F6DF22
:1000DE00E4800B0102040810204080900384E47E2B
:1000EE00019360BCA3FF543F30E509541FFEE49317
:1000FE00A360010ECF54C025E060A840B8E493A3DE
:10010E00FAE493A3F8E493A3C8C582C8CAC583CA08
:10011E00F0A3C8C582C8CAC583CADFE9DEE780BEC0
:01038D00006F
:00000001FF
