:0400F600020801807B
:0400DD007F147E000E
:1000E100EF1FAC0670011E4C600A7D027CEFDCFE46
:0400F100DDFC80ECC6
:0100F50022E8
:10008F007B01E4FA04F4F5A020B11F1200DD30B1BA
:10009F00FD1200DD0AEAD394084002E4FAEBA8024D
:1000AF00088002C333D8FCF4F5A020B0DB1200DDCA
:1000BF0030B0FD1200DD1AEAC3940050027A08EB4B
:0E00CF00A802088002C333D8FCF4F5A080BA62
:03000000020003F8
:0C000300787FE4F6D8FD75810902004A00
:10000F0002008FE493A3F8E493A34003F68001F278
:10001F0008DFF48029E493A3F85407240CC8C333F2
:10002F00C4540F4420C8834004F456800146F6DFC1
:10003F00E4800B01020408102040809000F6E47E5B
:10004F00019360BCA3FF543F30E509541FFEE493B6
:10005F00A360010ECF54C025E060A840B8E493A37D
:10006F00FAE493A3F8E493A3C8C582C8CAC583CAA8
:10007F00F0A3C8C582C8CAC583CADFE9DEE780BE60
:0100FA000005
:00000001FF
